{
  "contractName": "TWTR",
  "abi": [
    {
      "constant": true,
      "inputs": [
        {
          "name": "",
          "type": "address"
        },
        {
          "name": "",
          "type": "uint256"
        }
      ],
      "name": "UserPostMap",
      "outputs": [
        {
          "name": "",
          "type": "uint256"
        }
      ],
      "payable": false,
      "stateMutability": "view",
      "type": "function"
    },
    {
      "constant": true,
      "inputs": [
        {
          "name": "",
          "type": "uint256"
        }
      ],
      "name": "TWTRPosts",
      "outputs": [
        {
          "name": "author",
          "type": "address"
        },
        {
          "name": "message",
          "type": "string"
        },
        {
          "name": "reTWTR",
          "type": "bool"
        },
        {
          "name": "orgTWTR",
          "type": "string"
        },
        {
          "name": "truncated",
          "type": "bool"
        },
        {
          "name": "ID",
          "type": "uint256"
        },
        {
          "name": "IPFSMediaLink",
          "type": "string"
        }
      ],
      "payable": false,
      "stateMutability": "view",
      "type": "function"
    },
    {
      "constant": true,
      "inputs": [
        {
          "name": "",
          "type": "address"
        }
      ],
      "name": "Users",
      "outputs": [
        {
          "name": "UserID",
          "type": "address"
        },
        {
          "name": "addressIsUsed",
          "type": "bool"
        },
        {
          "name": "TWTRName",
          "type": "string"
        },
        {
          "name": "TwitterLink",
          "type": "string"
        },
        {
          "name": "IPFSPhotoLink",
          "type": "string"
        },
        {
          "name": "numUserPosts",
          "type": "uint256"
        }
      ],
      "payable": false,
      "stateMutability": "view",
      "type": "function"
    },
    {
      "constant": true,
      "inputs": [
        {
          "name": "",
          "type": "bytes32"
        },
        {
          "name": "",
          "type": "uint256"
        }
      ],
      "name": "HashTagMap",
      "outputs": [
        {
          "name": "",
          "type": "uint256"
        }
      ],
      "payable": false,
      "stateMutability": "view",
      "type": "function"
    },
    {
      "inputs": [],
      "payable": false,
      "stateMutability": "nonpayable",
      "type": "constructor"
    },
    {
      "anonymous": false,
      "inputs": [
        {
          "indexed": false,
          "name": "mesg",
          "type": "string"
        }
      ],
      "name": "TestEvent",
      "type": "event"
    },
    {
      "constant": false,
      "inputs": [
        {
          "name": "_Name",
          "type": "string"
        }
      ],
      "name": "MakeUser",
      "outputs": [],
      "payable": false,
      "stateMutability": "nonpayable",
      "type": "function"
    },
    {
      "constant": false,
      "inputs": [
        {
          "name": "mesg",
          "type": "string"
        },
        {
          "name": "tags",
          "type": "bytes32[]"
        },
        {
          "name": "IPFSLink",
          "type": "string"
        },
        {
          "name": "_reTWTR",
          "type": "bool"
        },
        {
          "name": "_orgTWTR",
          "type": "string"
        }
      ],
      "name": "MakePost",
      "outputs": [],
      "payable": false,
      "stateMutability": "nonpayable",
      "type": "function"
    },
    {
      "constant": true,
      "inputs": [
        {
          "name": "TargetUser",
          "type": "address"
        }
      ],
      "name": "getNumUserPosts",
      "outputs": [
        {
          "name": "",
          "type": "uint256"
        }
      ],
      "payable": false,
      "stateMutability": "view",
      "type": "function"
    },
    {
      "constant": true,
      "inputs": [
        {
          "name": "TargetTag",
          "type": "bytes32"
        }
      ],
      "name": "getNumTagPosts",
      "outputs": [
        {
          "name": "",
          "type": "uint256"
        }
      ],
      "payable": false,
      "stateMutability": "view",
      "type": "function"
    },
    {
      "constant": true,
      "inputs": [
        {
          "name": "postNum",
          "type": "uint256"
        },
        {
          "name": "TargetUser",
          "type": "address"
        }
      ],
      "name": "getPostByUser",
      "outputs": [
        {
          "name": "",
          "type": "string"
        }
      ],
      "payable": false,
      "stateMutability": "view",
      "type": "function"
    },
    {
      "constant": true,
      "inputs": [
        {
          "name": "postNum",
          "type": "uint256"
        },
        {
          "name": "HTag",
          "type": "bytes32"
        }
      ],
      "name": "getPostByHashtag",
      "outputs": [
        {
          "name": "",
          "type": "string"
        },
        {
          "name": "",
          "type": "address"
        }
      ],
      "payable": false,
      "stateMutability": "view",
      "type": "function"
    },
    {
      "constant": true,
      "inputs": [
        {
          "name": "TargetUser",
          "type": "address"
        }
      ],
      "name": "getNameByAddress",
      "outputs": [
        {
          "name": "",
          "type": "string"
        }
      ],
      "payable": false,
      "stateMutability": "view",
      "type": "function"
    }
  ],
  "bytecode": "0x6080604052336000806101000a81548173ffffffffffffffffffffffffffffffffffffffff021916908373ffffffffffffffffffffffffffffffffffffffff16021790555034801561005057600080fd5b506000600181905550611e11806100686000396000f3006080604052600436106100af576000357c0100000000000000000000000000000000000000000000000000000000900463ffffffff16806306812b0f146100b45780631cdd23fd1461011557806336bfc602146101fc5780634769adc8146102655780635b61974114610433578063665010451461057757806374f7d3ea1461063d5780637c80bb4f146106825780638e6b27ee1461073e57806399b956a014610795578063c0f954071461096e575b600080fd5b3480156100c057600080fd5b506100ff600480360381019080803573ffffffffffffffffffffffffffffffffffffffff169060200190929190803590602001909291905050506109bd565b6040518082815260200191505060405180910390f35b34801561012157600080fd5b5061014e6004803603810190808035906020019092919080356000191690602001909291905050506109ed565b60405180806020018373ffffffffffffffffffffffffffffffffffffffff1673ffffffffffffffffffffffffffffffffffffffff168152602001828103825284818151815260200191508051906020019080838360005b838110156101c05780820151818401526020810190506101a5565b50505050905090810190601f1680156101ed5780820380516001836020036101000a031916815260200191505b50935050505060405180910390f35b34801561020857600080fd5b50610263600480360381019080803590602001908201803590602001908080601f0160208091040260200160405190810160405280939291908181526020018383808284378201915050505050509192919290505050610b48565b005b34801561027157600080fd5b5061029060048036038101908080359060200190929190505050610dba565b604051808873ffffffffffffffffffffffffffffffffffffffff1673ffffffffffffffffffffffffffffffffffffffff168152602001806020018715151515815260200180602001861515151581526020018581526020018060200184810384528a818151815260200191508051906020019080838360005b83811015610324578082015181840152602081019050610309565b50505050905090810190601f1680156103515780820380516001836020036101000a031916815260200191505b50848103835288818151815260200191508051906020019080838360005b8381101561038a57808201518184015260208101905061036f565b50505050905090810190601f1680156103b75780820380516001836020036101000a031916815260200191505b50848103825285818151815260200191508051906020019080838360005b838110156103f05780820151818401526020810190506103d5565b50505050905090810190601f16801561041d5780820380516001836020036101000a031916815260200191505b509a505050505050505050505060405180910390f35b34801561043f57600080fd5b50610575600480360381019080803590602001908201803590602001908080601f016020809104026020016040519081016040528093929190818152602001838380828437820191505050505050919291929080359060200190820180359060200190808060200260200160405190810160405280939291908181526020018383602002808284378201915050505050509192919290803590602001908201803590602001908080601f0160208091040260200160405190810160405280939291908181526020018383808284378201915050505050509192919290803515159060200190929190803590602001908201803590602001908080601f0160208091040260200160405190810160405280939291908181526020018383808284378201915050505050509192919290505050610ffe565b005b34801561058357600080fd5b506105c260048036038101908080359060200190929190803573ffffffffffffffffffffffffffffffffffffffff169060200190929190505050611439565b6040518080602001828103825283818151815260200191508051906020019080838360005b838110156106025780820151818401526020810190506105e7565b50505050905090810190601f16801561062f5780820380516001836020036101000a031916815260200191505b509250505060405180910390f35b34801561064957600080fd5b5061066c6004803603810190808035600019169060200190929190505050611647565b6040518082815260200191505060405180910390f35b34801561068e57600080fd5b506106c3600480360381019080803573ffffffffffffffffffffffffffffffffffffffff169060200190929190505050611674565b6040518080602001828103825283818151815260200191508051906020019080838360005b838110156107035780820151818401526020810190506106e8565b50505050905090810190601f1680156107305780820380516001836020036101000a031916815260200191505b509250505060405180910390f35b34801561074a57600080fd5b5061077f600480360381019080803573ffffffffffffffffffffffffffffffffffffffff1690602001909291905050506117b3565b6040518082815260200191505060405180910390f35b3480156107a157600080fd5b506107d6600480360381019080803573ffffffffffffffffffffffffffffffffffffffff1690602001909291905050506118aa565b604051808773ffffffffffffffffffffffffffffffffffffffff1673ffffffffffffffffffffffffffffffffffffffff16815260200186151515158152602001806020018060200180602001858152602001848103845288818151815260200191508051906020019080838360005b83811015610860578082015181840152602081019050610845565b50505050905090810190601f16801561088d5780820380516001836020036101000a031916815260200191505b50848103835287818151815260200191508051906020019080838360005b838110156108c65780820151818401526020810190506108ab565b50505050905090810190601f1680156108f35780820380516001836020036101000a031916815260200191505b50848103825286818151815260200191508051906020019080838360005b8381101561092c578082015181840152602081019050610911565b50505050905090810190601f1680156109595780820380516001836020036101000a031916815260200191505b50995050505050505050505060405180910390f35b34801561097a57600080fd5b506109a7600480360381019080803560001916906020019092919080359060200190929190505050611adb565b6040518082815260200191505060405180910390f35b6004602052816000526040600020818154811015156109d857fe5b90600052602060002001600091509150505481565b60606000806000600560008660001916600019168152602001908152602001600020805490501415610a1e57600080fd5b60056000856000191660001916815260200190815260200160002085815481101515610a4657fe5b90600052602060002001549050600260008281526020019081526020016000206001016002600083815260200190815260200160002060000160009054906101000a900473ffffffffffffffffffffffffffffffffffffffff16818054600181600116156101000203166002900480601f016020809104026020016040519081016040528092919081815260200182805460018160011615610100020316600290048015610b355780601f10610b0a57610100808354040283529160200191610b35565b820191906000526020600020905b815481529060010190602001808311610b1857829003601f168201915b5050505050915092509250509250929050565b6000339050600360008273ffffffffffffffffffffffffffffffffffffffff1673ffffffffffffffffffffffffffffffffffffffff16815260200190815260200160002060000160149054906101000a900460ff1615610ba757600080fd5b80600e60000160006101000a81548173ffffffffffffffffffffffffffffffffffffffff021916908373ffffffffffffffffffffffffffffffffffffffff16021790555081600e6001019080519060200190610c04929190611b0b565b506001600e60000160146101000a81548160ff0219169083151502179055506000600e60060181905550600e600360008373ffffffffffffffffffffffffffffffffffffffff1673ffffffffffffffffffffffffffffffffffffffff1681526020019081526020016000206000820160009054906101000a900473ffffffffffffffffffffffffffffffffffffffff168160000160006101000a81548173ffffffffffffffffffffffffffffffffffffffff021916908373ffffffffffffffffffffffffffffffffffffffff1602179055506000820160149054906101000a900460ff168160000160146101000a81548160ff02191690831515021790555060018201816001019080546001816001161561010002031660029004610d2a929190611b8b565b506002820181600201908054610d41929190611c12565b506003820181600301908054610d58929190611c12565b5060048201816004019080546001816001161561010002031660029004610d80929190611b8b565b5060058201816005019080546001816001161561010002031660029004610da8929190611b8b565b50600682015481600601559050505050565b60026020528060005260406000206000915090508060000160009054906101000a900473ffffffffffffffffffffffffffffffffffffffff1690806001018054600181600116156101000203166002900480601f016020809104026020016040519081016040528092919081815260200182805460018160011615610100020316600290048015610e8c5780601f10610e6157610100808354040283529160200191610e8c565b820191906000526020600020905b815481529060010190602001808311610e6f57829003601f168201915b5050505050908060020160009054906101000a900460ff1690806003018054600181600116156101000203166002900480601f016020809104026020016040519081016040528092919081815260200182805460018160011615610100020316600290048015610f3d5780601f10610f1257610100808354040283529160200191610f3d565b820191906000526020600020905b815481529060010190602001808311610f2057829003601f168201915b5050505050908060040160009054906101000a900460ff1690806005015490806007018054600181600116156101000203166002900480601f016020809104026020016040519081016040528092919081815260200182805460018160011615610100020316600290048015610ff45780601f10610fc957610100808354040283529160200191610ff4565b820191906000526020600020905b815481529060010190602001808311610fd757829003601f168201915b5050505050905087565b6000806000339250600360008473ffffffffffffffffffffffffffffffffffffffff1673ffffffffffffffffffffffffffffffffffffffff16815260200190815260200160002060000160149054906101000a900460ff16151561106157600080fd5b60808851111561107057600080fd5b600a8751111561107f57600080fd5b600091505b86518210156110c5576038878381518110151561109d57fe5b9060200190602002015150602060ff1611156110b857600080fd5b8180600101925050611084565b82600660000160006101000a81548173ffffffffffffffffffffffffffffffffffffffff021916908373ffffffffffffffffffffffffffffffffffffffff1602179055508760066001019080519060200190611122929190611b0b565b508660068001908051906020019061113b929190611c82565b5084600660020160006101000a81548160ff0219169083151502179055508360066003019080519060200190611172929190611b0b565b50600360008473ffffffffffffffffffffffffffffffffffffffff1673ffffffffffffffffffffffffffffffffffffffff1681526020019081526020016000206006016000815480929190600101919050555060066002600060015481526020019081526020016000206000820160009054906101000a900473ffffffffffffffffffffffffffffffffffffffff168160000160006101000a81548173ffffffffffffffffffffffffffffffffffffffff021916908373ffffffffffffffffffffffffffffffffffffffff1602179055506001820181600101908054600181600116156101000203166002900461126a929190611b8b565b506002820160009054906101000a900460ff168160020160006101000a81548160ff021916908315150217905550600382018160030190805460018160011615610100020316600290046112bf929190611b8b565b506004820160009054906101000a900460ff168160040160006101000a81548160ff02191690831515021790555060058201548160050155600682018160060190805461130d929190611cd5565b5060078201816007019080546001816001161561010002031660029004611335929190611b8b565b50905050600460008473ffffffffffffffffffffffffffffffffffffffff1673ffffffffffffffffffffffffffffffffffffffff1681526020019081526020016000206001549080600181540180825580915050906001820390600052602060002001600090919290919091505550600090505b865181101561141d576005600088838151811015156113c457fe5b9060200190602002015160001916600019168152602001908152602001600020600154908060018154018082558091505090600182039060005260206000200160009091929091909150555080806001019150506113a9565b6001600081548092919060010191905055505050505050505050565b60606000600360008473ffffffffffffffffffffffffffffffffffffffff1673ffffffffffffffffffffffffffffffffffffffff16815260200190815260200160002060000160149054906101000a900460ff16151561149857600080fd5b83600360008573ffffffffffffffffffffffffffffffffffffffff1673ffffffffffffffffffffffffffffffffffffffff1681526020019081526020016000206006015410156114e757600080fd5b83600460008573ffffffffffffffffffffffffffffffffffffffff1673ffffffffffffffffffffffffffffffffffffffff16815260200190815260200160002080549050101561153657600080fd5b600460008473ffffffffffffffffffffffffffffffffffffffff1673ffffffffffffffffffffffffffffffffffffffff1681526020019081526020016000208481548110151561158257fe5b90600052602060002001549050600260008281526020019081526020016000206001018054600181600116156101000203166002900480601f0160208091040260200160405190810160405280929190818152602001828054600181600116156101000203166002900480156116395780601f1061160e57610100808354040283529160200191611639565b820191906000526020600020905b81548152906001019060200180831161161c57829003601f168201915b505050505091505092915050565b60008060056000846000191660001916815260200190815260200160002080549050905080915050919050565b6060600360008373ffffffffffffffffffffffffffffffffffffffff1673ffffffffffffffffffffffffffffffffffffffff16815260200190815260200160002060000160149054906101000a900460ff1615156116d157600080fd5b600360008373ffffffffffffffffffffffffffffffffffffffff1673ffffffffffffffffffffffffffffffffffffffff1681526020019081526020016000206001018054600181600116156101000203166002900480601f0160208091040260200160405190810160405280929190818152602001828054600181600116156101000203166002900480156117a75780601f1061177c576101008083540402835291602001916117a7565b820191906000526020600020905b81548152906001019060200180831161178a57829003601f168201915b50505050509050919050565b6000600360008373ffffffffffffffffffffffffffffffffffffffff1673ffffffffffffffffffffffffffffffffffffffff16815260200190815260200160002060000160149054906101000a900460ff16151561181057600080fd5b6000600360008473ffffffffffffffffffffffffffffffffffffffff1673ffffffffffffffffffffffffffffffffffffffff16815260200190815260200160002060060154141561186057600080fd5b600460008373ffffffffffffffffffffffffffffffffffffffff1673ffffffffffffffffffffffffffffffffffffffff168152602001908152602001600020805490509050919050565b60036020528060005260406000206000915090508060000160009054906101000a900473ffffffffffffffffffffffffffffffffffffffff16908060000160149054906101000a900460ff1690806001018054600181600116156101000203166002900480601f01602080910402602001604051908101604052809291908181526020018280546001816001161561010002031660029004801561198f5780601f106119645761010080835404028352916020019161198f565b820191906000526020600020905b81548152906001019060200180831161197257829003601f168201915b505050505090806004018054600181600116156101000203166002900480601f016020809104026020016040519081016040528092919081815260200182805460018160011615610100020316600290048015611a2d5780601f10611a0257610100808354040283529160200191611a2d565b820191906000526020600020905b815481529060010190602001808311611a1057829003601f168201915b505050505090806005018054600181600116156101000203166002900480601f016020809104026020016040519081016040528092919081815260200182805460018160011615610100020316600290048015611acb5780601f10611aa057610100808354040283529160200191611acb565b820191906000526020600020905b815481529060010190602001808311611aae57829003601f168201915b5050505050908060060154905086565b600560205281600052604060002081815481101515611af657fe5b90600052602060002001600091509150505481565b828054600181600116156101000203166002900490600052602060002090601f016020900481019282601f10611b4c57805160ff1916838001178555611b7a565b82800160010185558215611b7a579182015b82811115611b79578251825591602001919060010190611b5e565b5b509050611b879190611d27565b5090565b828054600181600116156101000203166002900490600052602060002090601f016020900481019282601f10611bc45780548555611c01565b82800160010185558215611c0157600052602060002091601f016020900482015b82811115611c00578254825591600101919060010190611be5565b5b509050611c0e9190611d27565b5090565b828054828255906000526020600020908101928215611c715760005260206000209182015b82811115611c705782829080546001816001161561010002031660029004611c60929190611b8b565b5091600101919060010190611c37565b5b509050611c7e9190611d4c565b5090565b828054828255906000526020600020908101928215611cc4579160200282015b82811115611cc3578251829060001916905591602001919060010190611ca2565b5b509050611cd19190611d78565b5090565b828054828255906000526020600020908101928215611d165760005260206000209182015b82811115611d15578254825591600101919060010190611cfa565b5b509050611d239190611d78565b5090565b611d4991905b80821115611d45576000816000905550600101611d2d565b5090565b90565b611d7591905b80821115611d715760008181611d689190611d9d565b50600101611d52565b5090565b90565b611d9a91905b80821115611d96576000816000905550600101611d7e565b5090565b90565b50805460018160011615610100020316600290046000825580601f10611dc35750611de2565b601f016020900490600052602060002090810190611de19190611d27565b5b505600a165627a7a72305820413f3b17c8f50565788878528470eda00243646f916ed719b9abca583a272fce0029",
  "source": "pragma solidity ^0.4.17;\r\n\r\n// DO NOT NEED A TOKEN FOR THIS CONTRACT SO DO NOT MAKE ERC-20\r\n\r\ncontract TWTR {\r\n  // Global\r\n  constructor (){\r\n    TotalNumPosts = 0;\r\n  }\r\n\r\n  uint constant MAXCHAR = 128;\r\n  uint constant MAXHASHTAGS = 10;\r\n  uint constant MAXHTLENGTH = 56;\r\n\r\n  // Public variables.\r\n  address TWTRId  = msg.sender;\r\n  uint TotalNumPosts;\r\n\r\n  // Events that will be fired on changes.\r\n  event TestEvent(string mesg);\r\n\r\n  // define a user\r\n  struct User{\r\n    address UserID;\r\n    bool addressIsUsed;\r\n    string TWTRName;\r\n    string [] followers; // having trouble making TWTR[] array - not sure if i can ref type within contract\r\n    string [] following;\r\n    string TwitterLink;  // Post to twitter in parallel / or link this to twitter to mirror what you post there\r\n    string IPFSPhotoLink;  // Link to your user photo on IPFS (ADD LATER)\r\n    uint numUserPosts;\r\n        // Get everything else working first. Deal with IPFS after test posting works\r\n  }\r\n  // define a Post\r\n  struct Post {\r\n\t   address author;\r\n     string message;\r\n     bool reTWTR; // retweet?\r\n     string orgTWTR; // original if reTWTR\r\n     bool truncated; //\r\n     uint ID; // Hash of message & author\r\n     //uint Timestamp; // Not needed. We have each post in a block. Can just use block ID\r\n     bytes32[] hashtags;\r\n     string IPFSMediaLink; // I need to put pic into IPFS. Does not start out as link\r\n      // Only 1 media link at first\r\n      // Get everything else working first. Deal with IPFS after test posting works\r\n  }\r\n\r\n  mapping(uint256 => Post) public TWTRPosts;      // indexed list of posts\r\n  mapping(address => User) public Users;          // each Eth address = separate User\r\n  mapping(address => uint[]) public UserPostMap;  // for each User's Eth address, provide a list of Post indexes\r\n  mapping(bytes32 => uint[]) public HashTagMap;   // for each possible HashTag, provide a list of related Post indexes\r\n\r\n  Post currentPost;\r\n  User newUser;\r\n\r\n  function MakeUser (string _Name){ // Can pass address in here as _User alternatively\r\n    // Only 1 user per address so check that address not used yet\r\n    address id = msg.sender;\r\n    if (Users[id].addressIsUsed) revert();\r\n    //User newUser;\r\n    newUser.UserID = id;//_User;\r\n    newUser.TWTRName = _Name;\r\n    newUser.addressIsUsed = true;\r\n    newUser.numUserPosts = 0;\r\n    // Add user to mapping\r\n    Users [id] = newUser;\r\n  }\r\n  function MakePost(string mesg, bytes32[] tags, string IPFSLink, bool _reTWTR, string _orgTWTR) public {\r\n      // Check that User has an account\r\n      address id = msg.sender;\r\n      if (!Users[id].addressIsUsed) revert();\r\n\r\n      //Post currentPost;\r\n      // Check that all is OK\r\n      if (bytes(mesg).length > MAXCHAR) revert(); // Message length not too long\r\n      if (tags.length > MAXHASHTAGS) revert(); // Not too many hashtags\r\n      for (uint i = 0; i < tags.length; i++){ // Hashtag lengths not too long\r\n        if (tags[i].length  > MAXHTLENGTH) revert();\r\n      }\r\n      currentPost.author = id;\r\n      currentPost.message = mesg;\r\n      currentPost.hashtags = tags;\r\n      currentPost.reTWTR = _reTWTR;     // if reposting something\r\n      currentPost.orgTWTR = _orgTWTR;   // if reposting, this is the OP\r\n      //currentPost.IPFSMediaLink = null; // deal with this later\r\n\r\n      Users[id].numUserPosts++;\r\n\r\n        // Add to TWTRPosts Map\r\n        TWTRPosts[TotalNumPosts] = currentPost;\r\n        // Update UserPostMap to reference this post index (currently TotalNumPosts)\r\n        UserPostMap[id].push(TotalNumPosts);\r\n        // Update HashTagMap to reference this post index for each tag\r\n        for (uint j = 0; j < tags.length; j++){\r\n          HashTagMap[tags[j]].push(TotalNumPosts);\r\n        }\r\n      TotalNumPosts ++;\r\n  }\r\n\r\n\r\nfunction getNumUserPosts (address TargetUser) public constant returns (uint){\r\n  // validate User\r\n  if (!Users[TargetUser].addressIsUsed) revert();\r\n  if (Users[TargetUser].numUserPosts == 0) revert();\r\n  return UserPostMap[TargetUser].length;\r\n}\r\nfunction getNumTagPosts (bytes32 TargetTag) public constant returns (uint){\r\n  uint numTag = HashTagMap[TargetTag].length;\r\n  // I think if unused should be zero. if issues, insert code here\r\n  return numTag;\r\n}\r\nfunction getPostByUser(uint postNum, address TargetUser) public constant returns (string){\r\n  // check valid\r\n  if (!Users[TargetUser].addressIsUsed) revert();\r\n  if (Users[TargetUser].numUserPosts < postNum) revert();\r\n  if (UserPostMap[TargetUser].length < postNum) revert();\r\n  uint postIndex = UserPostMap[TargetUser][postNum];\r\n  return TWTRPosts[postIndex].message; // Later, do some checks to make sure this is valid\r\n}\r\nfunction getPostByHashtag(uint postNum, bytes32 HTag) public constant returns (string, address){\r\n  if (HashTagMap[HTag].length == 0) revert();\r\n  uint postIndex =  HashTagMap[HTag][postNum];\r\n  return (TWTRPosts[postIndex].message, TWTRPosts[postIndex].author); // Later, do some checks to make sure this is valid\r\n}\r\n\r\nfunction getNameByAddress (address TargetUser) public constant returns (string){\r\n  if (!Users[TargetUser].addressIsUsed) revert();\r\n  return Users[TargetUser].TWTRName;\r\n}\r\n\r\n}\r\n",
  "sourcePath": "C:\\Users\\Mike\\truffle\\contracts\\TWTR.sol",
  "compiler": {
    "name": "solc",
    "version": "0.4.24+commit.e67f0147.Emscripten.clang"
  },
  "schemaVersion": "2.0.1",
  "updatedAt": "2018-09-03T04:03:17.282Z"
}